:020000040800F2
:1000000088040020C5000008CD000008CF000008CB
:1000100000000000000000000000000000000000E0
:10002000000000000000000000000000D1000008F7
:100030000000000000000000D3000008CD0B000805
:10004000D700000800000000D7000008D700000813
:10005000D7000008D7000008D7000008D700000824
:1000600000000000D7000008D7000008D7000008F3
:10007000D7000008D7000008D700000800000000E3
:10008000D70000080000000000000000D7000008B2
:1000900000000000D7000008D7000008D7000008C3
:1000A00000000000D700000800000000D700000892
:1000B0000348854600F02AF800480047890E0008EA
:1000C000880400200448804704480047FEE7FEE714
:1000D000FEE7FEE7FEE7FEE7290C0008B100000896
:1000E00030B50B46014600202022012409E00D46D0
:1000F000D5409D4205D31D469540491B2546954058
:1001000040191546521E002DF1DC30BD064C01256C
:10011000064E05E0E36807CC2B430C3C98471034AF
:10012000B442F7D3FFF7C8FF080F0008280F0008F4
:1001300031B500F0B7F8044600F0B4F80099001BA0
:100140008842F9D338BD0000F8B500238DE00124C2
:100150009C40A44622407DD04C68022C01D0122C39
:100160000CD1DC08A40027183C6A5D07ED0E0F26B1
:10017000AE40B4430E69AE4026433E6205685E0061
:100180000324B4400F79A543BF07BF0FB7402F43E7
:1001900007604D68012D05D0022D03D0112D01D02F
:1001A000122D0ED18568CF68A543B7402F438760D5
:1001B00047686546AF430D79ED06ED0F9D403D4321
:1001C0004560C568A5438C68B4402C43C4604C6846
:1001D000E40049D5284CA56901263543A561A469E9
:1001E0009D0834400094254CAD002F19BC689D0734
:1001F0002E0F0F25B540AC430925ED06A84201D1CD
:1002000000250FE01E4DA84201D101250AE01D4D39
:10021000A84201D1022505E01B4DA84201D10325CA
:1002200000E00525B5402543BD60184C25684E68A3
:100230009543F60300D51543256065684E689543E0
:10024000B60300D515436560A5684E689543F60270
:1002500002D500E008E01543A560E5684E689543C7
:10026000B60200D51543E5605B1C0A681446DC4005
:1002700000D06CE7F8BD0000001002400000014013
:100280000004004800080048000C00480004014039
:1002900042694A4042617047002A01D0816170473B
:1002A0008162704701480068704700001400002018
:1002B00002480168491C01607047000014000020DA
:1002C00010B506480168102211430160002000F0BB
:1002D00007F800F017F8002010BD000000200240D1
:1002E00010B5044600F056F97D21C900FFF7F8FE6D
:1002F00000F086FB00222146501E00F015F8002079
:1003000010BD000008B507488169012211438161D1
:1003100080691040002200901146501E00F004F841
:1003200008BD00000010024010B500F02DFC10BD0B
:10033000F8B5054600682D4CC00342D5216A03205C
:1003400000026A680140024091423AD0E16920040B
:100350000143E161E169264E014000913068A11539
:1003600008433060FFF79EFF074604E0FFF79AFF5F
:10037000C01B64281BD83068C005F7D5206A032746
:100380003F02226AB843012109040A432262226A19
:100390008A432262206280070ED5FFF783FF06465C
:1003A00007E0FFF77FFF811B1248814201D903203C
:1003B000F8BD206A8007F4D5206A6968B84308430D
:1003C00020622878C00705D0206BA96880088000CB
:1003D000084320632878800605D5206B10218843C8
:1003E000E968084320630020F8BD000000100240C7
:1003F0000070004088130000F8B5054662480E46BC
:100400000068F021C007C00F604CB04254D25E4873
:10041000026852085200324302600068C007C00FF1
:10042000B0426ED12878800704D560688843A968F7
:10043000084360602878C00728D06868012814D075
:100440002168022814D0890700295ADA61688908CE
:10045000890001436160FFF725FF064668680128AF
:100460000ED04B4F022817D021E021688903EBE71B
:100470008901E9E7FFF716FF801BB84201D961E067
:10048000434F60680007800F0128F3D16DE0FFF74C
:1004900009FF801BB84255D860680007800F02280A
:1004A000F5D162E0FFF7FEFE801BB8424AD86068D3
:1004B0000007800FF6D158E02878800704D56068DF
:1004C0008843A968084360602878C00740D06868FE
:1004D000012813D02168022814D08907002942DAA4
:1004E00061688908890001436160FFF7DBFE074608
:1004F000686801280ED0022818D025E021688903F9
:10050000ECE730E08901E9E7FFF7CCFEC11B2048AA
:10051000814217D860680007800F0128F4D117E0E6
:10052000FFF7C0FEC11B1A4881420BD86068000764
:10053000800F0228F4D10BE0FFF7B4FEC11B144872
:10054000814201D90320F8BD60680007800FF3D114
:100550000D48016849084900314301600068C0073F
:10056000C00FB04201D00120F8BD2878400706D561
:100570006068072109028843E96808436060002039
:10058000FFF7AEFE0020F8BD002002400010024040
:100590008813000010B500F021F805494968054AA4
:1005A0000906090F515CC8400349086010BD0000EE
:1005B00000100240F80E00080000002010B5FFF700
:1005C000E9FF04494968044A4905490F515CC8409C
:1005D00010BD000000100240F80E000810B512A374
:1005E0000FCB88B06C460FC413A30FCB0FC41649B2
:1005F0004A680C20134603401448042B0FD0082BE4
:100600000DD193021B0F6C46E45CC96A04AB090769
:10061000090F595CD20304D5FFF762FD604308B0AF
:1006200010BD0B486043FAE70203040506070809FA
:100630000A0B0C0D0E0F101001020304050607082B
:10064000090A0B0C0D0E0F100010024000127A0068
:1006500000093D00F8B504460078DF4DC0075FD0C3
:1006600068680007800F012807D068680007800FBE
:10067000022809D16868C00306D5286880034FD5D1
:10068000606800287ED04BE0286801263604B0431D
:1006900028602868B700B8432860FFF703FE009081
:1006A00006E0FFF7FFFD0099411ACC4881426AD865
:1006B00028688003F5D4606801280AD0002801D09A
:1006C000052808D029682846B14329602968B9431C
:1006D00007E0284603E02968284639432960016875
:1006E00031430160606800280DD0FFF7DBFD06464E
:1006F000BA4F04E0FFF7D6FD801BB842D7D8286870
:100700008003F7D50CE0FFF7CDFD0646B34F04E0BC
:10071000FFF7C8FD801BB842C9D828688003F7D40A
:1007200020780127800700283DDA68680007800FDD
:1007300007D068680007800F022809D16868C003E5
:1007400006D42868800715D5E06801281AD111E081
:10075000E0680028286817D038432860FFF7A2FD1A
:10076000064604E0FFF79EFD801B64289FD828689A
:100770008007F7D52868F82188432169C900084314
:10078000286010E025E1CCE0400840002860FFF739
:1007900089FD064604E0FFF785FD801B642886D8A6
:1007A00028688007F7D42078000721D5206A002820
:1007B000686A0ED038436862FFF774FD064604E0AD
:1007C000FFF770FD801B642898D8686A8007F7D50A
:1007D0000EE0400840006862FFF764FD064604E052
:1007E000FFF760FD801B642888D8686A8007F7D40B
:1007F000207804264007002866DAE969B00601433C
:10080000E961E96901407648009101688215114368
:100810000160FFF747FD009005E0FFF743FD0099F9
:10082000401A64287DD86E480068C005F5D5286A4E
:10083000400840002862286AB0432862FFF732FD72
:10084000009006E0FFF72EFD0099411A63488142AF
:1008500067D8286A8007F5D4A06801280BD0002843
:1008600001D0052809D0296A28464908490029628B
:10087000296AB14307E0284603E0296A2846314344
:100880002962016A39430162A06800280ED0FFF78F
:1008900009FD009006E0FFF705FD0099411A4F4859
:1008A00081423ED8286A8007F5D50DE0FFF7FAFCB3
:1008B000009006E0FFF7F6FC0099411A4748814294
:1008C0002FD8286A8007F5D42078C00635D560690E
:1008D00001280CD0401D686B24D030436863686BDE
:1008E000400840006863FFF7DDFC064622E0686BC5
:1008F00030436863686B38436863FFF7D3FC064690
:1009000004E0FFF7CFFC801B64285BD8686B80078E
:10091000F7D5686BF8218843A169C900084368636B
:100920000BE04FE0B0436863F3E7FFF7BBFC801BCD
:10093000642847D8686B8007F7D4606A002846D0DF
:1009400069680907890F022943D001263606022863
:10095000286805D0B0432860FFF7A4FC044633E0C4
:10096000B0432860FFF79EFC074604E0FFF79AFCBF
:10097000C01B642826D828688001F7D4E86A216B58
:10098000000900010843E862A16AE06A0843696857
:100990003D22120491430843686028683043286070
:1009A000FFF780FC044604E0FFF77CFC001B642892
:1009B00008D828688001F7D509E0FFF773FC001B11
:1009C000642801D90320F8BD28688001F5D40020EF
:1009D000F8BD0120F8BD000000100240881300009F
:1009E00000700040042204490428086902D09043A2
:1009F000086170471043FBE700E000E0704700002B
:100A0000094910B5401E884201D9012010BD074C8C
:100A100060610321081F00F0B7F80020A0610720E3
:100A20002061002010BD0000FFFFFF0000E000E09B
:100A300010B5FFF7E3FF10BD70B5040005D02546E3
:100A40006035687A002802D006E0012070BD0020E1
:100A50002872204600F026F802206872206801689B
:100A6000490849000160204600F07AF90128EDD0DC
:100A7000606A002802D0204600F004F9206841682E
:100A80000922D20291434160206881682A22914361
:100A9000816020680168012211430160204600F056
:100AA00056F970BD00B500680E4987B0884217D16D
:100AB0000D488269012189030A43826180690840E7
:100AC00005900320400200900220019001210320A4
:100AD00003900291049109206946C006FFF734FB98
:100AE00007B000BD003801400010024070B5184842
:100AF00086B04269012149040A43426142690A40C1
:100B00000592426949000A43426140690024084055
:100B1000059018200926F606009001946946029473
:100B20003046FFF711FBFF20C13001256A4631C274
:100B300069463046FFF708FBE020009002946946C2
:100B4000019503940348FFF7FFFA06B070BD00005B
:100B5000001002400004004810B50A48084901602E
:100B60004B214902416000218160C16001618161C6
:100B7000C1610C22016242614162FFF75DFF10BD5D
:100B800000380140180000208307FF22DB0E9A4046
:100B90008907090E994000280BDA0007000F083872
:100BA000830808489B001818C36993430B43C3612B
:100BB0007047830804489B001B181868904308433B
:100BC0001860704700ED00E000E400E010B5FFF7AA
:100BD0006FFBFFF72DFF10BD30B595B002200090E0
:100BE0000024102009940125049003956846FFF71E
:100BF00031FD0E940F9400210DA80D951094FFF770
:100C0000FBFB11A811951394FFF792FBFFF7C2FCB1
:100C10007D21C900FFF764FAFFF7F2FE0420FFF719
:100C2000E1FE15B030BD00001348016801221143F8
:100C300001604168114A114041600168104A114049
:100C400001600168012292049143016041683F22E2
:100C5000120491434160C16A09090901C162016B33
:100C6000FF22143291430163416B490849004163FB
:100C70000021816070470000001002400CB8FF089E
:100C8000FFFFF6FE10B5818CC90707D001684A68DE
:100C900001235B049A43836A1A434A60818C890763
:100CA00007D501684A6801231B049A43C36A1A43A3
:100CB0004A60818C490707D501684A6801239B0473
:100CC0009A43036B1A434A60818C090707D5016870
:100CD0004A680123DB039A43436B1A434A60818CC1
:100CE000C90607D50268916801231B039943836BEA
:100CF00019439160818C890607D501688A680123B0
:100D00005B039A43C36B1A438A60818C490612D5F0
:100D100003685A6801210905046C8A4322435A601A
:100D2000026C8A4207D10268516803235B0599432C
:100D3000436C19435160818C090607D501684A68E4
:100D40000123DB04806C9A4302434A6010BD0021FA
:100D5000C16601226030427201720846704700008D
:100D6000F8B504462369A268E6691A43636910214D
:100D70003343002026681A4333680546364F3B400C
:100D80001343336023685A6803263603B243E66888
:100D900032435A60236AA26926681A43B3680B2754
:100DA0003F02BB431343B3602C4A126B9207920F6E
:100DB00006D0012A08D0022A08D0032A07D101E070
:100DC000002104E0022102E0042100E008210122C8
:100DD000E369D203934220D100290CD002290DD01F
:100DE000042911D0082914D001250109090100079F
:100DF000400F08432DE0FFF7E1FB07E0184861686A
:100E0000FFF76EF980B2F0E7FFF7E8FB400061689A
:100E1000F6E7012000046168F2E7002908D0022902
:100E200009D004290DD008290FD001252846F8BD86
:100E3000FFF7C4FB07E00B486168FFF751F980B288
:100E400007E0FFF7CBFB6168F7E710466168FFF743
:100E500047F92168C860E9E7F369FFFF0010024025
:100E60000024F40000127A0002E008C8121F08C132
:100E7000002AFAD170477047002001E001C1121F1B
:100E8000002AFBD170470000FFF71AFAFFF7A4FE13
:100E9000FFF72CFEFFF760FE0021012000F016F89E
:100EA0000021022000F012F80021032000F00EF8CB
:100EB000054CFF25F53520212046FFF7E9F92846A6
:100EC000FFF736F9F7E70000000400480B4610B5BD
:100ED00000222021002B00D10122022802D0032869
:100EE00002D002E0402100E080210248FFF7D4F95F
:100EF00010BD0000000400480000000001020304CF
:100F00000102030406070809280F0008000000205A
:100F100018000000680E0008400F000818000020AC
:100F200070040000780E000800127A000000000033
:100F30000000000001020304060708090000000089
:04000005080000B13E
:00000001FF
