:020000040800F2
:1000000090040020C5000008CD000008CF000008C3
:1000100000000000000000000000000000000000E0
:10002000000000000000000000000000D1000008F7
:100030000000000000000000D30000086D0D000863
:10004000D700000800000000D7000008D700000813
:10005000D7000008D7000008D700000831010008C9
:1000600000000000D7000008D7000008D7000008F3
:10007000D7000008D7000008D700000800000000E3
:10008000D70000080000000000000000D7000008B2
:1000900000000000D7000008D7000008D7000008C3
:1000A00000000000D700000800000000D700000892
:1000B0000348854600F02AF800480047211100084F
:1000C000900400200448804704480047FEE7FEE70C
:1000D000FEE7FEE7FEE7FEE7C90D0008B1000008F5
:1000E00030B50B46014600202022012409E00D46D0
:1000F000D5409D4205D31D469540491B2546954058
:1001000040191546521E002DF1DC30BD064C01256C
:10011000064E05E0E36807CC2B430C3C98471034AF
:10012000B442F7D3FFF7C8FFBC110008DC11000888
:10013000F8B50927FF064021384600F0FFF80546CC
:100140008021384600F0FAF8FF2604460136314691
:10015000384600F0F3F80F4F002D15D0002C13D0C7
:10016000002811D00CA000F0A7FF01224021384642
:1001700000F0EDF8402000F031F8802000F02EF87B
:10018000304600F02BF8F8BD09A000F095FF0022E2
:10019000ECE7000000040048416C6C204275747468
:1001A0006F6E732052656C6561736564210A00008F
:1001B000427574746F6E2050726573736564210AA2
:1001C0000000000031B500F0C9F8044600F0C6F8A0
:1001D0000099001B8842F9D338BD704710B5044917
:1001E0004A69024202D04861FFF7F7FF10BD0000E4
:1001F00000040140F8B500238DE001249C40A44692
:1002000022407DD04C68022C01D0122C0CD1DC088D
:10021000A40027183C6A5D07ED0E0F26AE40B443DC
:100220000E69AE4026433E6205685E000324B4407A
:100230000F79A543BF07BF0FB7402F4307604D6835
:10024000012D05D0022D03D0112D01D0122D0ED17C
:100250008568CF68A543B7402F43876047686546E8
:10026000AF430D79ED06ED0F9D403D434560C568F8
:10027000A5438C68B4402C43C4604C68E40049D565
:10028000284CA56901263543A561A4699D08344021
:100290000094254CAD002F19BC689D072E0F0F252B
:1002A000B540AC430925ED06A84201D100250FE079
:1002B0001E4DA84201D101250AE01D4DA84201D1E1
:1002C000022505E01B4DA84201D1032500E00525CC
:1002D000B5402543BD60184C25684E689543F6032C
:1002E00000D51543256065684E689543B60300D573
:1002F00015436560A5684E689543F60202D500E097
:1003000008E01543A560E5684E689543B60200D540
:100310001543E5605B1C0A681446DC4000D06CE7BE
:10032000F8BD000000100240000001400004004839
:1003300000080048000C0048000401400069084023
:1003400000D00120704742694A4042617047002A4C
:1003500001D08161704781627047000001480068E8
:10036000704700001400002002480168491C016029
:10037000704700001400002010B5064801681022E4
:1003800011430160002000F007F800F017F800208A
:1003900010BD00000020024010B5044600F060F9D6
:1003A0007D21C900FFF79CFE00F090FB0022214652
:1003B000501E00F01FF8002010BD000008B50748CF
:1003C00081690122114381618069104000220090FF
:1003D0001146501E00F00EF808BD0000001002404B
:1003E000C106C90E0120884001490860704700001D
:1003F00000E100E010B500F097FC10BDF8B505462F
:1004000000682D4CC00342D5216A032000026A68AF
:100410000140024091423AD0E16920040143E16188
:10042000E169264E014000913068A1150843306013
:10043000FFF794FF074604E0FFF790FFC01B642816
:100440001BD83068C005F7D5206A03273F02226A0F
:10045000B843012109040A432262226A8A432262C4
:10046000206280070ED5FFF779FF064607E0FFF709
:1004700075FF811B1248814201D90320F8BD206A13
:100480008007F4D5206A6968B84308432062287859
:10049000C00705D0206BA96880088000084320634E
:1004A0002878800605D5206B10218843E968084329
:1004B00020630020F8BD00000010024000700040E2
:1004C00088130000F8B5054662480E460068F02122
:1004D000C007C00F604CB04254D25E480268520858
:1004E0005200324302600068C007C00FB0426ED1B4
:1004F0002878800704D560688843A968084360604D
:100500002878C00728D06868012814D021680228FC
:1005100014D0890700295ADA6168890889000143E3
:100520006160FFF71BFF0646686801280ED04B4F3D
:10053000022817D021E021688903EBE78901E9E768
:10054000FFF70CFF801BB84201D961E0434F6068A0
:100550000007800F0128F3D16DE0FFF7FFFE801B3D
:10056000B84255D860680007800F0228F5D162E0D4
:10057000FFF7F4FE801BB8424AD860680007800F7E
:10058000F6D158E02878800704D560688843A968C8
:10059000084360602878C00740D06868012813D0FD
:1005A0002168022814D08907002942DA6168890885
:1005B000890001436160FFF7D1FE074668680128A2
:1005C0000ED0022818D025E021688903ECE730E03E
:1005D0008901E9E7FFF7C2FEC11B2048814217D815
:1005E00060680007800F0128F4D117E0FFF7B6FE1E
:1005F000C11B1A4881420BD860680007800F02288F
:10060000F4D10BE0FFF7AAFEC11B1448814201D9C7
:100610000320F8BD60680007800FF3D10D48016822
:1006200049084900314301600068C007C00FB0426B
:1006300001D00120F8BD2878400706D56068072161
:1006400009028843E968084360600020FFF7A4FEC0
:100650000020F8BD00200240001002408813000076
:1006600010B500F021F805494968054A0906090F47
:10067000515CC8400349086010BD000000100240F2
:10068000AC1100080000002010B5FFF7E9FF044995
:100690004968044A4905490F515CC84010BD000033
:1006A00000100240AC11000810B512A30FCB88B0A7
:1006B0006C460FC413A30FCB0FC416494A680C2015
:1006C000134603401448042B0FD0082B0DD193027E
:1006D0001B0F6C46E45CC96A04AB0907090F595C3F
:1006E000D20304D5FFF7FCFC604308B010BD0B48F3
:1006F0006043FAE702030405060708090A0B0C0D1C
:100700000E0F10100102030405060708090A0B0C5E
:100710000D0E0F100010024000127A0000093D007B
:10072000F8B504460078DF4DC0075FD06868000761
:10073000800F012807D068680007800F022809D1C0
:100740006868C00306D5286880034FD56068002814
:100750007ED04BE0286801263604B0432860286824
:10076000B700B8432860FFF7F9FD009006E0FFF7F7
:10077000F5FD0099411ACC4881426AD82868800367
:10078000F5D4606801280AD0002801D0052808D0D7
:1007900029682846B14329602968B94307E02846FB
:1007A00003E0296828463943296001683143016024
:1007B000606800280DD0FFF7D1FD0646BA4F04E06F
:1007C000FFF7CCFD801BB842D7D828688003F7D547
:1007D0000CE0FFF7C3FD0646B34F04E0FFF7BEFD94
:1007E000801BB842C9D828688003F7D42078012735
:1007F000800700283DDA68680007800F07D0686826
:100800000007800F022809D16868C00306D4286851
:10081000800715D5E06801281AD111E0E0680028AA
:10082000286817D038432860FFF798FD064604E093
:10083000FFF794FD801B64289FD828688007F7D5B0
:100840002868F82188432169C9000843286010E01E
:1008500025E1CCE0400840002860FFF77FFD064618
:1008600004E0FFF77BFD801B642886D8286880079A
:10087000F7D42078000721D5206A0028686A0ED0B6
:1008800038436862FFF76AFD064604E0FFF766FD3D
:10089000801B642898D8686A8007F7D50EE0400866
:1008A00040006862FFF75AFD064604E0FFF756FD78
:1008B000801B642888D8686A8007F7D420780426CB
:1008C0004007002866DAE969B0060143E961E96991
:1008D0000140764800910168821511430160FFF7DD
:1008E0003DFD009005E0FFF739FD0099401A6428AE
:1008F0007DD86E480068C005F5D5286A40084000DC
:100900002862286AB0432862FFF728FD009006E0BD
:10091000FFF724FD0099411A6348814267D8286A8D
:100920008007F5D4A06801280BD0002801D0052845
:1009300009D0296A2846490849002962296AB14331
:1009400007E0284603E0296A284631432962016A04
:1009500039430162A06800280ED0FFF7FFFC009029
:1009600006E0FFF7FBFC0099411A4F4881423ED850
:10097000286A8007F5D50DE0FFF7F0FC009006E04F
:10098000FFF7ECFC0099411A474881422FD8286AAA
:100990008007F5D42078C00635D5606901280CD0D1
:1009A000401D686B24D030436863686B400840008A
:1009B0006863FFF7D3FC064622E0686B3043686348
:1009C000686B38436863FFF7C9FC064604E0FFF72D
:1009D000C5FC801B64285BD8686B8007F7D5686B03
:1009E000F8218843A169C900084368630BE04FE020
:1009F000B0436863F3E7FFF7B1FC801B642847D876
:100A0000686B8007F7D4606A002846D069680907D8
:100A1000890F022943D0012636060228286805D00E
:100A2000B0432860FFF79AFC044633E0B0432860E7
:100A3000FFF794FC074604E0FFF790FCC01B642816
:100A400026D828688001F7D4E86A216B00090001E4
:100A50000843E862A16AE06A084369683D2212041B
:100A6000914308436860286830432860FFF776FCAC
:100A7000044604E0FFF772FC001B642808D82868CD
:100A80008001F7D509E0FFF769FC001B642801D954
:100A90000320F8BD28688001F5D40020F8BD0120AE
:100AA000F8BD0000001002408813000000700040F4
:100AB000042204490428086902D090430861704761
:100AC0001043FBE700E000E070470000094910B563
:100AD000401E884201D9012010BD074C60610321EE
:100AE000081F00F021F90020A061072020610020EC
:100AF00010BD0000FFFFFF0000E000E010B5FFF7B1
:100B0000E3FF10BD70B5040005D025466035687A56
:100B1000002802D006E0012070BD00202872204687
:100B200000F026F802206872206801684908490030
:100B30000160204600F0E4F90128EDD0606A002849
:100B400002D0204600F06EF9206841680922D202E6
:100B500091434160206881682A2291438160206826
:100B60000168012211430160204600F0C0F970BD08
:100B700000B500680E4987B0884217D10D488269D8
:100B8000012189030A43826180690840059003209E
:100B90004002009002200190012103200390029165
:100BA000049109206946C006FFF724FB07B000BD89
:100BB0000038014000100240FFB50546044660358C
:100BC000687A81B00E46012802D0687A22284ED178
:100BD000002E1DD0002A1BD0287A012847D00120E2
:100BE00028720020E066687A222814D012206872E9
:100BF000274640373A827A82788A0022401E7882DD
:100C000080212046049B00F0FFF900281CD104E05D
:100C1000012005B0F0BD3220E9E70120A168000302
:100C2000814202D12069002810D0216830780885DF
:100C3000761C788A0028DFD1002240212046049BC0
:100C400000F0E2F9002808D00320E2E730882168AC
:100C5000C005C00D0885B61CEBE7687A322804D0C1
:100C60000120687200202872D3E72220F9E70220D1
:100C7000CFE7000070B51D4886B0426901214904E4
:100C80000A43426142690A400592426949000A43A7
:100C90004261406900240840059018200926F606A4
:100CA00000900194694602943046FFF7A3FAFF20B2
:100CB000C13000900E4801250190694602953046EA
:100CC000FFF798FAE020009002946946019503949A
:100CD0000848FFF78FFA002211460720FFF78AFB2A
:100CE0000720FFF77DFB06B070BD0000001002403A
:100CF000000031100004004810B50A48084901609E
:100D00004B214902416000218160C1600161816124
:100D1000C1610C22016242614162FFF7F3FE10BD26
:100D2000003801401C0000208307FF22DB0E9A40A0
:100D30008907090E994000280BDA0007000F0838D0
:100D4000830808489B001818C36993430B43C36189
:100D50007047830804489B001B1818689043084399
:100D60001860704700ED00E000E400E010B5FFF708
:100D7000FBFAFFF7C3FE10BD30B595B0022000901E
:100D80000024102009940125049003956846FFF77C
:100D9000C7FC0E940F9400210DA80D951094FFF739
:100DA00091FB11A811951394FFF728FBFFF758FC4E
:100DB0007D21C900FFF794F9FFF788FE0420FFF7B3
:100DC00077FE15B030BD00001348016801221143C1
:100DD00001604168114A114041600168104A1140A8
:100DE00001600168012292049143016041683F2241
:100DF000120491434160C16A09090901C162016B92
:100E0000FF22143291430163416B49084900416359
:100E10000021816070470000001002400CB8FF08FC
:100E2000FFFFF6FE10B5818CC90707D001684A683C
:100E300001235B049A43836A1A434A60818C8907C1
:100E400007D501684A6801231B049A43C36A1A4301
:100E50004A60818C490707D501684A6801239B04D1
:100E60009A43036B1A434A60818C090707D50168CE
:100E70004A680123DB039A43436B1A434A60818C1F
:100E8000C90607D50268916801231B039943836B48
:100E900019439160818C890607D501688A6801230E
:100EA0005B039A43C36B1A438A60818C490612D54F
:100EB00003685A6801210905046C8A4322435A6079
:100EC000026C8A4207D10268516803235B0599438B
:100ED000436C19435160818C090607D501684A6843
:100EE0000123DB04806C9A4302434A6010BD002159
:100EF000C1660122603042720172084670470000EC
:100F0000F8B504462369A268E6691A4363691021AB
:100F10003343002026681A4333680546364F3B406A
:100F20001343336023685A6803263603B243E668E6
:100F300032435A60236AA26926681A43B3680B27B2
:100F40003F02BB431343B3602C4A126B9207920FCC
:100F500006D0012A08D0022A08D0032A07D101E0CE
:100F6000002104E0022102E0042100E00821012226
:100F7000E369D203934220D100290CD002290DD07D
:100F8000042911D0082914D00125010909010007FD
:100F9000400F08432DE0FFF777FB07E01848616832
:100FA000FFF79EF880B2F0E7FFF77EFB4000616834
:100FB000F6E7012000046168F2E7002908D0022961
:100FC00009D004290DD008290FD001252846F8BDE5
:100FD000FFF75AFB07E00B486168FFF781F880B222
:100FE00007E0FFF761FB6168F7E710466168FFF70C
:100FF00077F82168C860E9E7F369FFFF0010024055
:101000000024F40000127A00F8B51D4616460F467B
:101010000446FFF7A3F931462646603600900029C2
:1010200016D041E0681C13D0002D06D0FFF796F9CA
:1010300001460098081AA8420AD92068016880224F
:1010400091430160206801682022914301601AE009
:101050002068C16938468843E4D12AE0681C23D05F
:10106000002D06D0FFF77AF901460098081AA84229
:101070001AD92068016880229143016020680268C3
:1010800020218A43026020680168FF2201329143D7
:101090000160206881684908490081600120707200
:1010A000002030720320F8BD2068C16938468843AB
:1010B000D4D00020F8BD000010B5024A024900F06B
:1010C00014F810BD091100081800002002E008C83B
:1010D000121F08C1002AFAD170477047002001E0B2
:1010E00001C1121F002AFBD17047F8B516460F4602
:1010F0000446002503E03946B047641C6D1C207887
:101100000028F8D12846F8BD13B5642301226946AA
:101110000248FFF751FD00981CBD00001C00002094
:10112000FFF72AF9FFF728FEFFF7A4FDFFF7E4FD1C
:101130000121084600F024F80021022000F020F8E8
:101140000021032000F01CF806A0FFF7B5FF0B4CB0
:10115000FF25F53520212046FFF7F5F82846FFF753
:1011600031F8F7E7506C616E6573706F7474657277
:101170002056312052656164790A0000000400485D
:101180000B4610B500222021002B00D1012202289D
:1011900002D0032802D002E0402100E08021024872
:1011A000FFF7D5F810BD0000000400480000000063
:1011B000010203040102030406070809DC11000808
:1011C000000000201C000000CC100008F8110008EE
:1011D0001C00002074040000DC10000800127A00DB
:1011E00000000000000000000102030406070809D7
:0811F0000000000000000000F7
:04000005080000B13E
:00000001FF
