:020000040800F2
:1000000018040020C5000008CD000008CF0000083B
:1000100000000000000000000000000000000000E0
:10002000000000000000000000000000D1000008F7
:100030000000000000000000D3000008450A00088E
:10004000D700000800000000D7000008D700000813
:10005000D7000008D7000008310100084701000858
:1000600000000000D7000008D7000008D7000008F3
:10007000D7000008D7000008D700000800000000E3
:10008000D70000080000000000000000D7000008B2
:1000900000000000D7000008D7000008D7000008C3
:1000A00000000000D700000800000000D700000892
:1000B0000348854600F02AF8004800470F0B000867
:1000C000180400200448804704480047FEE7FEE784
:1000D000FEE7FEE7FEE7FEE7950A0008B10000082C
:1000E00030B50B46014600202022012409E00D46D0
:1000F000D5409D4205D31D469540491B2546954058
:1001000040191546521E002DF1DC30BD064C01256C
:10011000064E05E0E36807CC2B430C3C98471034AF
:10012000B442F7D3FFF7C8FFA40B0008C40B0008C4
:1001300010B5082000F018F800F0FCFC0146022081
:1001400000F002FD10BD10B5402000F00DF8802039
:1001500000F00AF8FF20013000F006F8032000F05C
:1001600009FD10BD7047000010B504494A690242FC
:1001700002D04861FFF7F6FF10BD00000004014007
:10018000F8B500238DE001249C40A44622407DD098
:100190004C68022C01D0122C0CD1DC08A4002718CA
:1001A0003C6A5D07ED0E0F26AE40B4430E69AE40CB
:1001B00026433E6205685E000324B4400F79A543E0
:1001C000BF07BF0FB7402F4307604D68012D05D013
:1001D000022D03D0112D01D0122D0ED18568CF68CC
:1001E000A543B7402F43876047686546AF430D7905
:1001F000ED06ED0F9D403D434560C568A5438C6805
:10020000B4402C43C4604C68E40049D5284CA5692F
:1002100001263543A561A4699D0834400094254C0E
:10022000AD002F19BC689D072E0F0F25B540AC43BC
:100230000925ED06A84201D100250FE01E4DA84278
:1002400001D101250AE01D4DA84201D1022505E09A
:100250001B4DA84201D1032500E00525B5402543EB
:10026000BD60184C25684E689543F60300D51543CC
:10027000256065684E689543B60300D515436560F3
:10028000A5684E689543F60202D500E008E01543E4
:10029000A560E5684E689543B60200D51543E56054
:1002A0005B1C0A681446DC4000D06CE7F8BD000017
:1002B000001002400000014000040048000800480F
:1002C000000C0048000401400069084000D00120F3
:1002D000704742694A4042617047002A01D08161FB
:1002E0007047816270470000014800687047000055
:1002F0001400002002480168491C0160704700009A
:100300001400002010B50648016810221143016056
:10031000002000F007F800F017F8002010BD0000E2
:100320000020024010B5044600F0F2F87D21C9001B
:10033000FFF7D6FE00F012FB00222146501E00F00F
:1003400015F8002010BD000008B50748816901229A
:100350001143816180691040002200901146501EB7
:1003600000F004F808BD00000010024010B500F0D5
:1003700047FB10BDF8B5054662480E460068F021FF
:10038000C007C00F604CB04254D25E4802685208A9
:100390005200324302600068C007C00FB0426ED105
:1003A0002878800704D560688843A968084360609E
:1003B0002878C00728D06868012814D0216802284E
:1003C00014D0890700295ADA616889088900014335
:1003D0006160FFF789FF0646686801280ED04B4F21
:1003E000022817D021E021688903EBE78901E9E7BA
:1003F000FFF77AFF801BB84201D961E0434F606884
:100400000007800F0128F3D16DE0FFF76DFF801B1F
:10041000B84255D860680007800F0228F5D162E025
:10042000FFF762FF801BB8424AD860680007800F60
:10043000F6D158E02878800704D560688843A96819
:10044000084360602878C00740D06868012813D04E
:100450002168022814D08907002942DA61688908D6
:10046000890001436160FFF73FFF07466868012884
:100470000ED0022818D025E021688903ECE730E08F
:100480008901E9E7FFF730FFC11B2048814217D8F7
:1004900060680007800F0128F4D117E0FFF724FF00
:1004A000C11B1A4881420BD860680007800F0228E0
:1004B000F4D10BE0FFF718FFC11B1448814201D9AA
:1004C0000320F8BD60680007800FF3D10D48016874
:1004D00049084900314301600068C007C00FB042BD
:1004E00001D00120F8BD2878400706D560680721B3
:1004F00009028843E968084360600020FFF712FFA3
:100500000020F8BD002002400010024088130000C7
:1005100010B500F011F805494968054A0906090FA8
:10052000515CC8400349086010BD00000010024043
:10053000940B00080000002010B512A30FCB88B068
:100540006C460FC413A30FCB0FC416494A680C2086
:10055000134603401448042B0FD0082B0DD19302EF
:100560001B0F6C46E45CC96A04AB0907090F595CB0
:10057000D20304D5FFF7B4FD604308B010BD0B48AB
:100580006043FAE702030405060708090A0B0C0D8D
:100590000E0F10100102030405060708090A0B0CD0
:1005A0000D0E0F100010024000127A0000093D00ED
:1005B000F8B504460078DF4DC0075FD068680007D3
:1005C000800F012807D068680007800F022809D132
:1005D0006868C00306D5286880034FD56068002886
:1005E0007ED04BE0286801263604B0432860286896
:1005F000B700B8432860FFF777FE009006E0FFF7EA
:1006000073FE0099411ACC4881426AD82868800359
:10061000F5D4606801280AD0002801D0052808D048
:1006200029682846B14329602968B94307E028466C
:1006300003E0296828463943296001683143016095
:10064000606800280DD0FFF74FFE0646BA4F04E061
:10065000FFF74AFE801BB842D7D828688003F7D539
:100660000CE0FFF741FE0646B34F04E0FFF73CFE07
:10067000801BB842C9D828688003F7D420780127A6
:10068000800700283DDA68680007800F07D0686897
:100690000007800F022809D16868C00306D42868C3
:1006A000800715D5E06801281AD111E0E06800281C
:1006B000286817D038432860FFF716FE064604E086
:1006C000FFF712FE801B64289FD828688007F7D5A3
:1006D0002868F82188432169C9000843286010E090
:1006E00025E1CCE0400840002860FFF7FDFD06460C
:1006F00004E0FFF7F9FD801B642886D8286880078E
:10070000F7D42078000721D5206A0028686A0ED027
:1007100038436862FFF7E8FD064604E0FFF7E4FDB2
:10072000801B642898D8686A8007F7D50EE04008D7
:1007300040006862FFF7D8FD064604E0FFF7D4FDED
:10074000801B642888D8686A8007F7D4207804263C
:100750004007002866DAE969B0060143E961E96902
:100760000140764800910168821511430160FFF74E
:10077000BBFD009005E0FFF7B7FD0099401A642823
:100780007DD86E480068C005F5D5286A400840004D
:100790002862286AB0432862FFF7A6FD009006E0B1
:1007A000FFF7A2FD0099411A6348814267D8286A81
:1007B0008007F5D4A06801280BD0002801D00528B7
:1007C00009D0296A2846490849002962296AB143A3
:1007D00007E0284603E0296A284631432962016A76
:1007E00039430162A06800280ED0FFF77DFD00901C
:1007F00006E0FFF779FD0099411A4F4881423ED843
:10080000286A8007F5D50DE0FFF76EFD009006E041
:10081000FFF76AFD0099411A474881422FD8286A9C
:100820008007F5D42078C00635D5606901280CD042
:10083000401D686B24D030436863686B40084000FB
:100840006863FFF751FD064622E0686B304368633A
:10085000686B38436863FFF747FD064604E0FFF71F
:1008600043FD801B64285BD8686B8007F7D5686BF5
:10087000F8218843A169C900084368630BE04FE091
:10088000B0436863F3E7FFF72FFD801B642847D868
:10089000686B8007F7D4606A002846D0696809074A
:1008A000890F022943D0012636060228286805D080
:1008B000B0432860FFF718FD044633E0B0432860DA
:1008C000FFF712FD074604E0FFF70EFDC01B64288A
:1008D00026D828688001F7D4E86A216B0009000156
:1008E0000843E862A16AE06A084369683D2212048D
:1008F000914308436860286830432860FFF7F4FCA0
:10090000044604E0FFF7F0FC001B642808D82868C0
:100910008001F7D509E0FFF7E7FC001B642801D947
:100920000320F8BD28688001F5D40020F8BD01201F
:10093000F8BD000000100240881300000070004065
:10094000042204490428086902D0904308617047D2
:100950001043FBE700E000E070470000094910B5D4
:10096000401E884201D9012010BD074C606103215F
:10097000081F00F045F80020A0610720206100203A
:1009800010BD0000FFFFFF0000E000E010B5FFF722
:10099000E3FF10BD70B5184886B0426901214904D3
:1009A0000A43426142690A400592426949000A438A
:1009B0004261406900240840059018200926F60687
:1009C00000900194694602943046FFF7D9FBFF205E
:1009D000C13001256A4631C269463046FFF7D0FB77
:1009E000E020009002946946019503940348FFF7C4
:1009F000C7FB06B070BD00000010024000040048B4
:100A00008307FF22DB0E9A408907090E99400028D0
:100A10000BDA0007000F0838830808489B001818F5
:100A2000C36993430B43C3617047830804489B0029
:100A30001B181868904308431860704700ED00E0E9
:100A400000E400E010B5FFF755FCFFF79FFF10BD75
:100A500030B591B0022000900024102009940125A7
:100A6000049003956846FFF7A3FD0E940F940021B0
:100A70000DA80D951094FFF77DFCFFF749FD7D2132
:100A8000C900FFF72DFBFFF769FF0420FFF758FFB0
:100A900011B030BD13480168012211430160416863
:100AA000114A114041600168104A1140016001681B
:100AB000012292049143016041683F221204914354
:100AC0004160C16A09090901C162016BFF22143248
:100AD00091430163416B49084900416300218160F2
:100AE00070470000001002400CB8FF08FFFFF6FE40
:100AF00002E008C8121F08C1002AFAD170477047E7
:100B0000002001E001C1121F002AFBD17047FFF74E
:100B1000F9FB0121084600F017F80021022000F03F
:100B200013F80021032000F00FF8FFF791FFFFF703
:100B300031FFFEE710B509200821C006FFF7C4FB0E
:100B4000012800D0002010BD0B4610B50022202146
:100B5000002B00D10122022802D0032802D002E09B
:100B6000402100E080210248FFF7B7FB10BD0000E4
:100B70000004004810B52021022802D0032802D02A
:100B800002E0402100E080210148FFF7A2FB10BDF8
:100B900000040048000000000102030401020304F5
:100BA00006070809C40B0008000000201800000018
:100BB000F00A0008DC0B0008180000200004000008
:100BC000000B000800127A00000000000000000086
:0C0BD000010203040607080900000000F1
:04000005080000B13E
:00000001FF
